:02000002B0004C
:1040000000400B003C520B00000006000C000502B3
:084010000401A30F00000000F1
:044018005C4F0B00EE
:10401C0009480A49884208B505D0094A824202D0AB
:10402C00121A00F0E3FE0748074A0021121A00F0AA
:10403C00EBFE014808BD00BF40E60320A8510B0071
:10404C00ACE60320ACE60320EDE7032070B5074E89
:10405C00074C00F0ADFDA41BA4080025AC4200D118
:10406C0070BD56F8043B98470135F7E754510B00E7
:10407C0078510B0000F013B808B500F014F8BDE847
:10408C00084000F04DBD00F0C9B900F0CFB9007880
:10409C00B0FA80F04009704701230370704701218A
:1040AC00072000F0F5BD08B50121072000F001FE46
:1040BC0040F6B83000F0D2F90720002100F0F9FDED
:1040CC00BDE808404FF47A7000F0C8B908B501207B
:1040DC00002100F01FF9064B0022C3E90022A2F5D3
:1040EC0080329A60BDE80840022000F003B900BF9E
:1040FC00ACE6032008B5024B1B685B6C019308BD52
:10410C004802030008B5024B1B685B68019308BDAD
:10411C001802030008B5024B1B685B69019308BDCC
:10412C001802030008B5024B1B689B68019308BD7D
:10413C002C02030008B5024B1B68DB68019308BD19
:10414C002C02030008B5024B1B681B69019308BDC8
:10415C002C02030008B5024B1B681B6A019308BDB7
:10416C002802030008B5024B1B685B6A019308BD6B
:10417C002802030008B5024B1B689B6A019308BD1B
:10418C002802030008B5024B1B68DB6A019308BDCB
:10419C002802030008B5024B1B681B6B019308BD7A
:1041AC002802030008B5024B1B685B6B019308BD2A
:1041BC002802030008B5024B1B681B6C019308BD59
:1041CC002802030008B5024B1B685B69019308BD0C
:1041DC006402030008B5024B1B689B68019308BD81
:1041EC006802030008B5024B1B68DB68019308BD2D
:1041FC006802030008B5024B1B68DB69019308BD1C
:10420C003002030008B5024B1B681B6A019308BD02
:10421C003002030008B5024B1B68DB68019308BD34
:10422C003C02030008B5024B1B681B69019308BDD7
:10423C003C02030008B5024B1B685B69019308BD87
:10424C003C02030008B5024B1B689B69019308BD37
:10425C003C02030008B5024B1B68DB69019308BDE7
:10426C003C02030008B5024B1B681B6A019308BD96
:10427C003C02030008B5024B1B689B6A019308BD06
:10428C003C02030008B5024B1B681B6C019308BD74
:10429C003C02030008B5024B1B681B68019308BD68
:1042AC004C02030008B5024B1B681B69019308BD47
:1042BC004C02030008B5024B1B685B69019308BDF7
:1042CC004C02030008B5024B1B689B69019308BDA7
:1042DC004C02030008B5024B1B68DB69019308BD57
:1042EC004C02030008B5024B1B681B6A019308BD06
:1042FC004C02030008B5024B1B685B68019308BDB8
:10430C002002030008B5024B1B685B69019308BDD2
:10431C002002030008B5024B1B68DB6A019308BD41
:10432C002002030008B5034B1B68D3F888300193B7
:10433C0008BD00002002030008B5034B1B68D3F82E
:10434C009430019308BD00002002030008B5024B15
:10435C001B68DB6B019308BD4402030008B5024BDC
:10436C001B685B68019308BD4002030008B5024B53
:10437C001B689B68019308BD4002030008B5024B03
:10438C001B68DB68019308BD4002030008B5024BB3
:10439C001B681B69019308BD4002030008B5024B62
:1043AC001B685B69019308BD4002030008B5024B12
:1043BC001B689B69019308BD4002030008B5024BC2
:1043CC001B68DB69019308BD4002030008B5024B72
:1043DC001B681B6A019308BD4002030008B5024B21
:1043EC001B681B6B019308BD4002030008B5024B10
:1043FC001B685B6B019308BD4002030008B5024BC0
:10440C001B681B6C019308BD4002030008B5024BEE
:10441C001B685B6C019308BD4002030008B5024B9E
:10442C001B681B68019308BD1C02030008B5024BF6
:10443C001B685B68019308BD1C02030008B5024BA6
:10444C001B681B6C019308BD1C02030008B5024BD2
:10445C001B685B6C019308BD1C0203000021FFF775
:10446C0051BF0000024800230360FFF743BE00BFAA
:10447C00B8E60320002240681146FFF7A7BF0022D0
:10448C0040681146FFF7B2BF40680022FFF7A6BF95
:10449C004068002281F00101FFF790BF00234068C3
:1044AC001A461946FFF782BF002340681A46194680
:1044BC00FFF774BF002240681146FFF767BF002268
:1044CC0040681146FFF752BF406800220221FFF7F7
:1044DC0055BF002340681A46FFF740BF024B03222A
:1044EC005A60024A1A607047BCE60320784F0B00F2
:1044FC007047F8B5064615460C468F18BC4206D0D8
:10450C00336814F8011B9B6830469847F6E7284639
:10451C00F8BD007C0022FFF71DBE007C0021FFF7D8
:10452C0021BE007C0021FFF725BE007C0021FFF797
:10453C0029BE007C0021FFF72DBE10B514210446C6
:10454C00FFF7A3FD204610BD10B54FF47A73044657
:10455C0008460021C4E90113034B23602074114663
:10456C00FFF728FE204610BDB44F0B00704710B566
:10457C0018210446FFF789FD204610BDF0B5037DD8
:10458C00062B8DB00E4600F104074FF0000412D03C
:10459C0000F1080515F8011D0A22304600F043F918
:1045AC00AF42044419D0002CF4D02E21304600F038
:1045BC0037F90444EEE72F236A4639460A208DF872
:1045CC000040FFF7FFFD684600F054FC33680246DC
:1045DC00DB68694630469847044620460DB0F0BD6E
:1045EC0010B5054B0446112240F8043B002100F0A5
:1045FC000BFC204610BD00BFDC4F0B000346074AE6
:10460C0010B543F8042B01F1100251F8044B43F898
:10461C00044B9142F9D10A781A7010BDDC4F0B0093
:10462C0010B59DF8084044EA032343EA024242EAEB
:10463C00016104234160037510BD000007B5064BF2
:10464C000360CB7800938B784A780978FFF7E8FF02
:10465C0003B05DF804FB00BFDC4F0B00014B024ABA
:10466C001A607047C4E60320E84F0B000023406833
:10467C001A46FFF773BE406800220221FFF77EBE88
:10468C00002240681146FFF771BE002240681146B7
:10469C00FFF77CBE002340681A461946FFF77EBE22
:1046AC00002340681A461946FFF780BE4068002177
:1046BC00FFF7A4BE40680021FFF7A8BE40680022A7
:1046CC0081F00101FFF77ABE40680022FFF786BE39
:1046DC00002240681146FFF789BE0022406811464F
:1046EC00FFF774BE2DE9F04395B014460D4607460E
:1046FC00FFF776FF00211C220DA8009100F084FB2F
:10470C0040230C9320466B460CAA0021FFF76AFD50
:10471C00044600284BD1024601216868FFF736FE9B
:10472C000221804622466868FFF730FE009E8146D3
:10473C002146002E3BD0002939D17368022B03D0BF
:10474C000A2B11D0F669F4E7B8F1000FFAD07169B1
:10475C0006A8043107ADFFF771FF0FCD3C1D0FC448
:10476C002B6823704146EDE7B9F1000FEAD074696C
:10477C00102201A800F048FB06238DF8143001AD7F
:10478C0004F108031834186859682A4603C2083320
:10479C00A3421546F7D101A906A807ADFFF72EFFD6
:1047AC000FCD3C1D0FC42B6823704946CAE70098F7
:1047BC00FFF710FD384615B0BDE8F083024B034AF5
:1047CC001A6000225A607047C8E60320F44F0B00B1
:1047DC00F8B506460D468F180024BD420CD0336840
:1047EC0015F8011B9B6830469847031E01DB1C44DF
:1047FC00F3E7002C08BF1C462046F8BD13B5044651
:10480C00084659B1019100F035FB23680199DB682A
:10481C000246204602B0BDE81040184702B010BD59
:10482C0003689B68184730B58BB00023012A8DF8BC
:10483C00243098BF0A2209AC0D46B1FBF2F101FB02
:10484C00125303F0FF03092B94BF30333733DBB221
:10485C00AA4204F8013DEFD92146FFF7CFFF0BB078
:10486C0030BD0000014B00229A607047D0E6032057
:10487C0010B5044608462170FFF7BCFC00236360AA
:10488C00204610BD054B02221A60054B054A9A6062
:10489C000020C3E90000FFF72DBD00BFECE60320AC
:1048AC00E0E603200000FFFF024B1A68024B1A607F
:1048BC00704700BF40E60320F0E6032070474174C8
:1048CC00704708B5007CFFF7D5FC20EAE07008BD06
:1048DC0008B5007CFFF7A6FC20EAE07008BD08B51F
:1048EC00007CFFF7AFFC40EAE07008BD08B5007C27
:1048FC00FFF7A0FC40EAE07008BD007CFFF7AABC03
:10490C0037B5457C04462DB1207C03B0BDE8304062
:10491C00FFF780BC007C0191FFF7ACFC00280199EB
:10492C00F2DC284603B030BD10B514210446FFF765
:10493C00ACFB204610BD000010B54FF47A73044652
:10494C00084611460022C4E90123044B23600123CD
:10495C0020746374FFF796FC204610BD4C500B007E
:10496C00417470477047704708B50021007CFFF711
:10497C00A9FC40EAE07008BD08B50121007CFFF7F6
:10498C00A1FC40EAE07008BD08B5007CFFF792FC82
:10499C0020EAE07008BD08B5007CFFF783FC20EA34
:1049AC00E07008BD13B50446007C0191FFF782FC52
:1049BC000028019901DC607C20B1207CFFF78AFC87
:1049CC0020EAE07002B010BD007CFFF78BBC10B584
:1049DC0014210446FFF759FB204610BD10B54FF4C7
:1049EC007A73044608460021C4E90113044B236082
:1049FC000123207463741146FFF74CFC204610BD54
:104A0C007C500B0010B514220446002100F0FCF978
:104A1C00204610BD10B50F4C88B003A8FFF7F2FF6D
:104A2C002178BFF35B8F11F001010FD1204601916A
:104A3C00FFF72DFB019948B103AA0748FFF7CEFFFA
:104A4C002046FFF729FB054800F0CAF9024808B0D8
:104A5C0010BD00BFF4E60320F8E6032071490B00FB
:104A6C00002240681146FFF791BC002240681146B5
:104A7C00FFF7ACBC002240681146FFF7B7BC40689A
:104A8C000022FFF7ABBC4068002281F00101FFF768
:104A9C0095BC002340681A461946FFF787BC0023D3
:104AAC0040681A461946FFF779BC00224068114647
:104ABC00FFF75CBC406800220221FFF75FBC0023BB
:104ACC0040681A46FFF74ABC024B04225A60024A5D
:104ADC001A6070470CE70320AC500B00014B1860B8
:104AEC00704700BF44E6032008B50B4B43B1FFF7FA
:104AFC0091FF03681B699847002801DDAFF3008024
:104B0C00064B43B100F046F903681B69984700282F
:104B1C0001DDAFF3008008BD0000000000000000C4
:104B2C0008B5FFF7E1FFFFF7F5FA014B186008BD78
:104B3C0028E703200548064A064908B5121A00F072
:104B4C0055F9054B054A1A6008BD00BF00F4032057
:104B5C0004F40320A4510B0000F403201E1C279A1C
:104B6C0007B5002300931A466FF07701FFF7E4FBBB
:104B7C0003B05DF804FB000007B543880A2B08D08E
:104B8C00502B0BD1094B1B684BB103B05DF804EBF8
:104B9C001847FFF7E5FF03B05DF804FB0023009313
:104BAC001A466FF07701FFF7C7FBF4E718E703200D
:104BBC0010B512480021FFF749FC114B1A68114B34
:104BCC009A42114B0CBF012200221A7001D0FFF740
:104BDC00B1FFFFF797FA044600F01EF90B4B13B127
:104BEC002046AFF3008000210848FFF7AFFBBDE87B
:104BFC00104007480021FFF795BB00BFE94A0B00A6
:104C0C0000F403201E1C279A14E703200000000068
:104C1C00854B0B00232813B502D9002002B010BD20
:104C2C00A0F10B03022B1AD8174C2178BFF35B8F22
:104C3C0011F001010BD120460191FFF728FA0199DF
:104C4C0028B11248FFF714FE2046FFF725FA0F4B48
:104C5C001878FFF7D7FA0028DFD10120DEE701280A
:104C6C0009D800F057F80021007CFFF79BFA80F080
:104C7C000100C0B2D2E709380128EED800F08AF85A
:104C8C00007CFFF7EFFAF2E71CE7032020E7032094
:104C9C00232838B504460D460AD8FF2908D0FFF75B
:104CAC00B9FF28B129462046BDE83840FFF73ABA8B
:104CBC0038BD38B504460D46FFF73CFAFF2810D036
:104CCC00062804D84D2323FA00F0C30709D4204644
:104CDC00FFF7A0FF28B129462046BDE83840FFF772
:104CEC0031BA38BD7047000038B52025142304466E
:104CFC000360856005610649284600F06FF8044999
:104D0C006060284600F06AF8E060204638BD00BFBD
:104D1C00E0500B0030B50E4D2978BFF35B8F11F0CE
:104D2C00010487B011D12846FFF7B1F968B101A889
:104D3C00FFF7DAFF01AA21460648FFF705FC2846D3
:104D4C00FFF7AAF9044800F04BF8024807B030BD51
:104D5C002CE7032030E70320F14C0B0070470000D8
:104D6C0038B5044614252A46002100F04DF825805C
:104D7C004025074925812846258200F02FF8044953
:104D8C006060284600F02AF8E060204638BD00BF7D
:104D9C00E0500B0030B50E4D2978BFF35B8F11F04E
:104DAC00010487B011D12846FFF771F968B101A849
:104DBC00FFF7D6FF01AA21460648FFF7BDFD28469E
:104DCC00FFF76AF9044800F00BF8024807B030BD51
:104DDC0044E7032048E70320694D0B00FFF753B964
:104DEC00002301461A46184600F04CB80A4491427A
:104DFC0000F1FF3300D1704710B511F8014B03F8E7
:104E0C00014F9142F9D110BD02440346934200D1A7
:104E1C00704703F8011BF9E738B5104B1D68AB6BF5
:104E2C000446B3B91820FFF7F9FA0246A86320B973
:104E3C000B4B0C484221FFF701FB0B490B4BC0E914
:104E4C0000130B4B83600B23838100210120C2E9EB
:104E5C000401AB6B00221C615A6138BD44E603208F
:104E6C00E1500B00F8500B000E33CDAB34126DE655
:104E7C00ECDE0500034613F8012B002AFBD1181AAF
:104E8C00013870472DE9F843DFF8B8800646D8F8AA
:104E9C0000001F460D46914600F056F8254B1C6845
:104EAC0034B9254C1C60254B13B11B68C4F88830F1
:104EBC0063681F2B07DDD8F8000000F047F84FF0AF
:104ECC00FF30BDE8F8834EB3D4F8880088B91C4B8A
:104EDC0023B9D8F8000000F038F8F0E74FF48470EC
:104EEC00FFF79CFA0028F4D00023C0E94033C4F843
:104EFC008800636840F8239001229A4000EB8301FC
:104F0C00D0F800311343C0F80031022EC1F8807084
:104F1C0002BFD0F804311343C0F804316368D8F8E9
:104F2C0000005A1C0233626044F8235000F00EF863
:104F3C000020C6E7E8E703205CE703200000000040
:104F4C0029440B00A8E60320704770477047000007
:104F5C001D400B0059400B0081400B0085400B009D
:104F6C00000000000000000000000000DF440B0007
:104F7C00D5440B00CB440B00C1440B00B5440B00D3
:104F8C00A9440B00B9460B00C1460B009D440B0015
:104F9C0095440B008B440B0081440B00F1460B0035
:104FAC000000000000000000FD440B0047450B0012
:104FBC001F450B00FF440B0027450B002F450B0032
:104FCC0037450B003F450B000000000000000000BF
:104FDC0089450B0079450B007B450B006170700017
:104FEC00000000000000000079460B0083460B0017
:104FFC008D460B0097460B00A1460B00AD460B00EF
:10500C00B9460B00C1460B00C9460B00D5460B0038
:10501C00DD460B00E7460B00F1460B0025592D250C
:10502C006D2D25645425483A254D3A2553257A0093
:10503C0061736374696D650000000000000000007E
:10504C00C9480B0035490B000D490B00DD470B001F
:10505C00DD480B00F9480B00EB480B0007490B002F
:10506C00CB480B00CF480B000000000000000000F4
:10507C0073490B00DB490B00B1490B00DD470B00FA
:10508C00A3490B0075490B0085490B00D5490B0052
:10509C0095490B006D490B0000000000000000005A
:1050AC00CB4A0B00C14A0B00B74A0B006D4A0B00F0
:1050BC00AB4A0B009F4A0B00B9460B00C1460B00D4
:1050CC00934A0B008B4A0B00814A0B00774A0B006A
:1050DC00F1460B00005245454E54206D616C6C6FCF
:1050EC006320737563636565646564002F746D700C
:1050FC002F6A656E6B696E732D4743432D31302DCE
:10510C00706970656C696E652D34385F3230323081
:10511C00313132345F313630363138303633392F25
:10512C007372632F6E65776C69622F6E65776C692D
:10513C00622F6C6962632F7374646C69622F726185
:10514C006E642E6300000000D9400B0071440B000C
:10515C00E9440B0069460B00C9470B0071480B0072
:10516C0091480B00B5480B00D54A0B00000000001D
:04517C00000000002F
:10518000040000001400000003000000474E55001A
:10519000F67F94D3699E6883D89A46BBF40A207B35
:0451A000D185B3758D
:0451A4000000000007
:1051A8003C500B0048E6032000000000000000000F
:1051B80000000000000000000000000000000000E7
:1051C80000000000000000000000000000000000D7
:1051D80000000000000000000000000000000000C7
:1051E80000000000000000000000000000000000B7
:1051F80000000000000000000000000000000000A7
:0C5208000000000000000000ECE70320A4
:10521400FFFFFFFF00000102030405060708090A57
:105224000B0C0D0E0F101112131415161718191A52
:085234001B1C1D1E1F20280099
:04523C00785634125A
:04000003B000401CED
:00000001FF
